{
  "_format": "hh-sol-artifact-1",
  "contractName": "VerifySignature",
  "sourceName": "contracts/VerifySignature.sol",
  "abi": [
    {
      "inputs": [],
      "stateMutability": "nonpayable",
      "type": "constructor"
    },
    {
      "inputs": [
        {
          "internalType": "bytes32",
          "name": "_messageHash",
          "type": "bytes32"
        }
      ],
      "name": "getEthSignedMessageHash",
      "outputs": [
        {
          "internalType": "bytes32",
          "name": "",
          "type": "bytes32"
        }
      ],
      "stateMutability": "pure",
      "type": "function"
    },
    {
      "inputs": [
        {
          "internalType": "address",
          "name": "_to",
          "type": "address"
        },
        {
          "internalType": "uint256",
          "name": "_amount",
          "type": "uint256"
        },
        {
          "internalType": "string",
          "name": "_message",
          "type": "string"
        },
        {
          "internalType": "uint256",
          "name": "_nonce",
          "type": "uint256"
        }
      ],
      "name": "getMessageHash",
      "outputs": [
        {
          "internalType": "bytes32",
          "name": "",
          "type": "bytes32"
        }
      ],
      "stateMutability": "pure",
      "type": "function"
    },
    {
      "inputs": [],
      "name": "manager",
      "outputs": [
        {
          "internalType": "address",
          "name": "",
          "type": "address"
        }
      ],
      "stateMutability": "view",
      "type": "function"
    },
    {
      "inputs": [
        {
          "internalType": "bytes32",
          "name": "_ethSignedMessageHash",
          "type": "bytes32"
        },
        {
          "internalType": "bytes",
          "name": "_signature",
          "type": "bytes"
        }
      ],
      "name": "recoverSigner",
      "outputs": [
        {
          "internalType": "address",
          "name": "",
          "type": "address"
        }
      ],
      "stateMutability": "pure",
      "type": "function"
    },
    {
      "inputs": [
        {
          "internalType": "bytes",
          "name": "sig",
          "type": "bytes"
        }
      ],
      "name": "splitSignature",
      "outputs": [
        {
          "internalType": "bytes32",
          "name": "r",
          "type": "bytes32"
        },
        {
          "internalType": "bytes32",
          "name": "s",
          "type": "bytes32"
        },
        {
          "internalType": "uint8",
          "name": "v",
          "type": "uint8"
        }
      ],
      "stateMutability": "pure",
      "type": "function"
    },
    {
      "inputs": [
        {
          "internalType": "address",
          "name": "_signer",
          "type": "address"
        },
        {
          "internalType": "address",
          "name": "_to",
          "type": "address"
        },
        {
          "internalType": "uint256",
          "name": "_amount",
          "type": "uint256"
        },
        {
          "internalType": "string",
          "name": "_message",
          "type": "string"
        },
        {
          "internalType": "uint256",
          "name": "_nonce",
          "type": "uint256"
        },
        {
          "internalType": "bytes",
          "name": "signature",
          "type": "bytes"
        }
      ],
      "name": "verify",
      "outputs": [
        {
          "internalType": "bool",
          "name": "",
          "type": "bool"
        }
      ],
      "stateMutability": "pure",
      "type": "function"
    }
  ],
  "bytecode": "0x608060405234801561001057600080fd5b50600080546001600160a01b03191633179055610668806100326000396000f3fe608060405234801561001057600080fd5b50600436106100725760003560e01c8063a7bb580311610050578063a7bb5803146100db578063abe5026a1461010c578063fa5408011461012f57600080fd5b8063481c6a751461007757806397aba7f9146100a7578063a35f8a40146100ba575b600080fd5b60005461008a906001600160a01b031681565b6040516001600160a01b0390911681526020015b60405180910390f35b61008a6100b536600461042d565b610190565b6100cd6100c8366004610490565b61020f565b60405190815260200161009e565b6100ee6100e93660046104ef565b610248565b60408051938452602084019290925260ff169082015260600161009e565b61011f61011a36600461052c565b6102da565b604051901515815260200161009e565b6100cd61013d3660046105c3565b6040517f19457468657265756d205369676e6564204d6573736167653a0a3332000000006020820152603c8101829052600090605c01604051602081830303815290604052805190602001209050919050565b60008060008061019f85610248565b6040805160008152602081018083528b905260ff8316918101919091526060810184905260808101839052929550909350915060019060a0016020604051602081039080840390855afa1580156101fa573d6000803e3d6000fd5b5050604051601f190151979650505050505050565b60008484848460405160200161022894939291906105dc565b604051602081830303815290604052805190602001209050949350505050565b600080600083516041146102bc576040517f08c379a000000000000000000000000000000000000000000000000000000000815260206004820152601860248201527f696e76616c6964207369676e6174757265206c656e6774680000000000000000604482015260640160405180910390fd5b50505060208101516040820151606090920151909260009190911a90565b6000806102e98787878761020f565b90506000610344826040517f19457468657265756d205369676e6564204d6573736167653a0a3332000000006020820152603c8101829052600090605c01604051602081830303815290604052805190602001209050919050565b9050886001600160a01b031661035a8286610190565b6001600160a01b0316149998505050505050505050565b7f4e487b7100000000000000000000000000000000000000000000000000000000600052604160045260246000fd5b600082601f8301126103b157600080fd5b813567ffffffffffffffff808211156103cc576103cc610371565b604051601f8301601f19908116603f011681019082821181831017156103f4576103f4610371565b8160405283815286602085880101111561040d57600080fd5b836020870160208301376000602085830101528094505050505092915050565b6000806040838503121561044057600080fd5b82359150602083013567ffffffffffffffff81111561045e57600080fd5b61046a858286016103a0565b9150509250929050565b80356001600160a01b038116811461048b57600080fd5b919050565b600080600080608085870312156104a657600080fd5b6104af85610474565b935060208501359250604085013567ffffffffffffffff8111156104d257600080fd5b6104de878288016103a0565b949793965093946060013593505050565b60006020828403121561050157600080fd5b813567ffffffffffffffff81111561051857600080fd5b610524848285016103a0565b949350505050565b60008060008060008060c0878903121561054557600080fd5b61054e87610474565b955061055c60208801610474565b945060408701359350606087013567ffffffffffffffff8082111561058057600080fd5b61058c8a838b016103a0565b94506080890135935060a08901359150808211156105a957600080fd5b506105b689828a016103a0565b9150509295509295509295565b6000602082840312156105d557600080fd5b5035919050565b6bffffffffffffffffffffffff198560601b1681528360148201526000835160005b8181101561061b57602081870181015160348684010152016105fe565b50603492019182019290925260540194935050505056fea26469706673582212207127b4081239bee50bf7bdfd17b6bb7dcb188861fccaf644404bfb51d60b709d64736f6c63430008120033",
  "linkReferences": {},
  "deployedLinkReferences": {}
}