{
  "_format": "hh-sol-artifact-1",
  "contractName": "rating",
  "sourceName": "contracts/Rating.sol",
  "abi": [
    {
      "inputs": [],
      "stateMutability": "nonpayable",
      "type": "constructor"
    },
    {
      "anonymous": false,
      "inputs": [
        {
          "indexed": true,
          "internalType": "address",
          "name": "ApproverAddress",
          "type": "address"
        },
        {
          "indexed": false,
          "internalType": "uint256",
          "name": "id",
          "type": "uint256"
        },
        {
          "indexed": false,
          "internalType": "uint256",
          "name": "amount",
          "type": "uint256"
        }
      ],
      "name": "RequestApproved",
      "type": "event"
    },
    {
      "anonymous": false,
      "inputs": [
        {
          "indexed": true,
          "internalType": "address",
          "name": "userAddress",
          "type": "address"
        },
        {
          "indexed": false,
          "internalType": "uint256",
          "name": "id",
          "type": "uint256"
        },
        {
          "indexed": false,
          "internalType": "uint256",
          "name": "amount",
          "type": "uint256"
        }
      ],
      "name": "RequestMade",
      "type": "event"
    },
    {
      "anonymous": false,
      "inputs": [
        {
          "indexed": false,
          "internalType": "uint256",
          "name": "reward",
          "type": "uint256"
        },
        {
          "indexed": false,
          "internalType": "uint256",
          "name": "timestamp",
          "type": "uint256"
        }
      ],
      "name": "RewardChanged",
      "type": "event"
    },
    {
      "anonymous": false,
      "inputs": [
        {
          "indexed": false,
          "internalType": "address",
          "name": "UserAddress",
          "type": "address"
        },
        {
          "indexed": false,
          "internalType": "uint256",
          "name": "timestamp",
          "type": "uint256"
        }
      ],
      "name": "UserAdded",
      "type": "event"
    },
    {
      "inputs": [
        {
          "internalType": "uint256",
          "name": "_id",
          "type": "uint256"
        }
      ],
      "name": "Approve",
      "outputs": [],
      "stateMutability": "nonpayable",
      "type": "function"
    },
    {
      "inputs": [
        {
          "internalType": "string",
          "name": "_url",
          "type": "string"
        },
        {
          "internalType": "uint256",
          "name": "_rating",
          "type": "uint256"
        }
      ],
      "name": "addTransaction",
      "outputs": [],
      "stateMutability": "nonpayable",
      "type": "function"
    },
    {
      "inputs": [],
      "name": "bank",
      "outputs": [
        {
          "internalType": "address",
          "name": "",
          "type": "address"
        }
      ],
      "stateMutability": "view",
      "type": "function"
    },
    {
      "inputs": [
        {
          "internalType": "uint256",
          "name": "_reward",
          "type": "uint256"
        }
      ],
      "name": "changeReward",
      "outputs": [],
      "stateMutability": "nonpayable",
      "type": "function"
    },
    {
      "inputs": [],
      "name": "getBalance",
      "outputs": [
        {
          "internalType": "uint256",
          "name": "",
          "type": "uint256"
        }
      ],
      "stateMutability": "view",
      "type": "function"
    },
    {
      "inputs": [
        {
          "internalType": "uint256",
          "name": "_rating",
          "type": "uint256"
        }
      ],
      "name": "getReward",
      "outputs": [
        {
          "internalType": "uint256",
          "name": "",
          "type": "uint256"
        }
      ],
      "stateMutability": "view",
      "type": "function"
    },
    {
      "inputs": [],
      "name": "getReward",
      "outputs": [
        {
          "internalType": "uint256",
          "name": "",
          "type": "uint256"
        }
      ],
      "stateMutability": "view",
      "type": "function"
    },
    {
      "inputs": [],
      "name": "manager",
      "outputs": [
        {
          "internalType": "address",
          "name": "",
          "type": "address"
        }
      ],
      "stateMutability": "view",
      "type": "function"
    },
    {
      "inputs": [
        {
          "internalType": "uint256",
          "name": "",
          "type": "uint256"
        }
      ],
      "name": "requests",
      "outputs": [
        {
          "internalType": "uint256",
          "name": "",
          "type": "uint256"
        }
      ],
      "stateMutability": "view",
      "type": "function"
    },
    {
      "inputs": [
        {
          "internalType": "uint256",
          "name": "id",
          "type": "uint256"
        }
      ],
      "name": "transactions",
      "outputs": [
        {
          "internalType": "uint256",
          "name": "id",
          "type": "uint256"
        },
        {
          "internalType": "address",
          "name": "user",
          "type": "address"
        },
        {
          "internalType": "string",
          "name": "url",
          "type": "string"
        },
        {
          "internalType": "uint256",
          "name": "rating",
          "type": "uint256"
        },
        {
          "internalType": "uint256",
          "name": "reward",
          "type": "uint256"
        },
        {
          "internalType": "uint256",
          "name": "timestamp",
          "type": "uint256"
        },
        {
          "internalType": "enum rating.Status",
          "name": "transactionStatus",
          "type": "uint8"
        }
      ],
      "stateMutability": "view",
      "type": "function"
    },
    {
      "inputs": [
        {
          "internalType": "string",
          "name": "url",
          "type": "string"
        }
      ],
      "name": "urls",
      "outputs": [
        {
          "internalType": "bool",
          "name": "",
          "type": "bool"
        }
      ],
      "stateMutability": "view",
      "type": "function"
    },
    {
      "inputs": [
        {
          "internalType": "address",
          "name": "user",
          "type": "address"
        }
      ],
      "name": "userRequests",
      "outputs": [
        {
          "internalType": "uint256",
          "name": "request",
          "type": "uint256"
        }
      ],
      "stateMutability": "view",
      "type": "function"
    },
    {
      "inputs": [
        {
          "internalType": "address",
          "name": "userAddress",
          "type": "address"
        }
      ],
      "name": "users",
      "outputs": [
        {
          "internalType": "address",
          "name": "userAddress",
          "type": "address"
        },
        {
          "internalType": "uint256",
          "name": "balance",
          "type": "uint256"
        }
      ],
      "stateMutability": "view",
      "type": "function"
    }
  ],
  "bytecode": "0x6080604052600480546001600160a01b03191673e6cedca3f9a8710e22d64e82e383520776470a0517905534801561003657600080fd5b506001600055600380546001600160a01b031916331790556801a055690d9db80000600555610f188061006a6000396000f3fe608060405234801561001057600080fd5b50600436106100df5760003560e01c8063770fcb651161008c5780639ace38c2116100665780639ace38c2146101d1578063a87430ba146101f7578063cf5d57db14610249578063e8601c661461025c57600080fd5b8063770fcb651461016d57806377b92c07146101ab57806381d12c58146101be57600080fd5b80633d18b912116100bd5780633d18b91214610127578063481c6a751461012f57806376cdb03b1461015a57600080fd5b806312065fe0146100e45780631c4b774b146100ff57806324aceeb414610112575b600080fd5b6100ec61027c565b6040519081526020015b60405180910390f35b6100ec61010d366004610a7a565b61030c565b610125610120366004610b36565b610322565b005b6005546100ec565b600354610142906001600160a01b031681565b6040516001600160a01b0390911681526020016100f6565b600454610142906001600160a01b031681565b61019b61017b366004610b7b565b805160208183018101805160028252928201919093012091525460ff1681565b60405190151581526020016100f6565b6101256101b9366004610a7a565b61058b565b6100ec6101cc366004610a7a565b61080c565b6101e46101df366004610a7a565b61082d565b6040516100f69796959493929190610bf2565b61022a610205366004610c7a565b600760205260009081526040902080546001909101546001600160a01b039091169082565b604080516001600160a01b0390931683526020830191909152016100f6565b610125610257366004610a7a565b6108fe565b6100ec61026a366004610c7a565b60096020526000908152604090205481565b600480546040517f70a0823100000000000000000000000000000000000000000000000000000000815233928101929092526000916001600160a01b03909116906370a0823190602401602060405180830381865afa1580156102e3573d6000803e3d6000fd5b505050506040513d601f19601f820116820180604052508101906103079190610caa565b905090565b60006005548261031c9190610cd9565b92915050565b6002826040516103329190610cf0565b9081526040519081900360200190205460ff16151560010361039b5760405162461bcd60e51b815260206004820152601260248201527f75726c20616c726561647920657869737473000000000000000000000000000060448201526064015b60405180910390fd5b336000908152600760205260409020546001600160a01b03166103c0576103c0610984565b60016002836040516103d29190610cf0565b908152604051908190036020019020805491151560ff19909216919091179055610400600180546001019055565b600061040b60015490565b905060006104188361030c565b6040805160e08101825284815233602080830191825282840189815260608401899052608084018690524260a0850152600060c08501819052888152600890925293902082518155905160018201805473ffffffffffffffffffffffffffffffffffffffff19166001600160a01b0390921691909117905591519293509160028201906104a59082610d95565b50606082015160038201556080820151600482015560a0820151600582015560c082015160068201805460ff1916600183818111156104e6576104e6610bdc565b02179055505033600090815260096020526040812080546001935090919061050f908490610e55565b9091555050600680546001810182556000919091527ff652222313e28459528d920b65115c16c04f3efc82aaedc97be59f3f377c0d3f01829055604080518381526020810183905233917f24a5a8eb5577443e36e8da75f5e05194f1e1bfbaf641b7a1e9069bec4d2a71ee91015b60405180910390a250505050565b6003546001600160a01b031633146105d15760405162461bcd60e51b81526020600482015260096024820152682737ba1030b236b4b760b91b6044820152606401610392565b600160008281526008602052604090206006015460ff1660018111156105f9576105f9610bdc565b036106465760405162461bcd60e51b815260206004820152601060248201527f416c726561647920417070726f766564000000000000000000000000000000006044820152606401610392565b600081815260086020908152604080832060018101546001600160a01b03908116808652600790945293829020600480830154815494517fa9059cbb00000000000000000000000000000000000000000000000000000000815291820195909552602481018590529194909392169063a9059cbb906044016020604051808303816000875af11580156106dd573d6000803e3d6000fd5b505050506040513d601f19601f820116820180604052508101906107019190610e68565b50808260010160008282546107169190610e55565b909155505060068301805460ff1916600117905560005b60065461073c90600190610e8a565b81101561079c576006610750826001610e55565b8154811061076057610760610e9d565b90600052602060002001546006828154811061077e5761077e610e9d565b6000918252602090912001558061079481610eb3565b91505061072d565b5060068054806107ae576107ae610ecc565b60019003818190600052602060002001600090559055336001600160a01b03167f72eac37cab79fc1aa17a72d288b91435145fd43511852c3780092d368f07181d84600001548360405161057d929190918252602082015260400190565b6006818154811061081c57600080fd5b600091825260209091200154905081565b60086020526000908152604090208054600182015460028301805492936001600160a01b039092169261085f90610d0c565b80601f016020809104026020016040519081016040528092919081815260200182805461088b90610d0c565b80156108d85780601f106108ad576101008083540402835291602001916108d8565b820191906000526020600020905b8154815290600101906020018083116108bb57829003601f168201915b505050506003830154600484015460058501546006909501549394919390925060ff1687565b6003546001600160a01b031633146109445760405162461bcd60e51b81526020600482015260096024820152682737ba1030b236b4b760b91b6044820152606401610392565b6005819055604080518281524260208201527f453d330bbd1ce32fd7bfa00c1af928bb5abe16a97e3d0188e53fbef00b8e293a910160405180910390a150565b336000908152600760205260409020546001600160a01b0316156109ea5760405162461bcd60e51b815260206004820152600e60248201527f416c7265616479204578697374730000000000000000000000000000000000006044820152606401610392565b604080518082018252338082526000602080840182815283835260078252918590209351845473ffffffffffffffffffffffffffffffffffffffff19166001600160a01b039091161784559051600190930192909255825190815242918101919091527f25ddd06f7eaeb83bb3fbcaa231d4b89e2d7bcd781043983661920061e755a7f0910160405180910390a1565b600060208284031215610a8c57600080fd5b5035919050565b634e487b7160e01b600052604160045260246000fd5b600082601f830112610aba57600080fd5b813567ffffffffffffffff80821115610ad557610ad5610a93565b604051601f8301601f19908116603f01168101908282118183101715610afd57610afd610a93565b81604052838152866020858801011115610b1657600080fd5b836020870160208301376000602085830101528094505050505092915050565b60008060408385031215610b4957600080fd5b823567ffffffffffffffff811115610b6057600080fd5b610b6c85828601610aa9565b95602094909401359450505050565b600060208284031215610b8d57600080fd5b813567ffffffffffffffff811115610ba457600080fd5b610bb084828501610aa9565b949350505050565b60005b83811015610bd3578181015183820152602001610bbb565b50506000910152565b634e487b7160e01b600052602160045260246000fd5b8781526001600160a01b038716602082015260e06040820152600086518060e0840152610100610c288282860160208c01610bb8565b80601f19601f840116850101925050508560608301528460808301528360a083015260028310610c6857634e487b7160e01b600052602160045260246000fd5b8260c083015298975050505050505050565b600060208284031215610c8c57600080fd5b81356001600160a01b0381168114610ca357600080fd5b9392505050565b600060208284031215610cbc57600080fd5b5051919050565b634e487b7160e01b600052601160045260246000fd5b808202811582820484141761031c5761031c610cc3565b60008251610d02818460208701610bb8565b9190910192915050565b600181811c90821680610d2057607f821691505b602082108103610d4057634e487b7160e01b600052602260045260246000fd5b50919050565b601f821115610d9057600081815260208120601f850160051c81016020861015610d6d5750805b601f850160051c820191505b81811015610d8c57828155600101610d79565b5050505b505050565b815167ffffffffffffffff811115610daf57610daf610a93565b610dc381610dbd8454610d0c565b84610d46565b602080601f831160018114610df85760008415610de05750858301515b600019600386901b1c1916600185901b178555610d8c565b600085815260208120601f198616915b82811015610e2757888601518255948401946001909101908401610e08565b5085821015610e455787850151600019600388901b60f8161c191681555b5050505050600190811b01905550565b8082018082111561031c5761031c610cc3565b600060208284031215610e7a57600080fd5b81518015158114610ca357600080fd5b8181038181111561031c5761031c610cc3565b634e487b7160e01b600052603260045260246000fd5b600060018201610ec557610ec5610cc3565b5060010190565b634e487b7160e01b600052603160045260246000fdfea26469706673582212204101a30e363eb7987344289d3422820811f99cf5a7a49f18d7d9642567bef8d964736f6c63430008120033",
  "linkReferences": {},
  "deployedLinkReferences": {}
}